{
    "_format": "hh-sol-artifact-1",
    "contractName": "SimpleVaultFactory",
    "sourceName": "contracts/SimpleVaultFactory.sol",
    "abi": [
        {
            "anonymous": false,
            "inputs": [
                {
                    "indexed": true,
                    "internalType": "bytes32",
                    "name": "role",
                    "type": "bytes32"
                },
                {
                    "indexed": true,
                    "internalType": "bytes32",
                    "name": "previousAdminRole",
                    "type": "bytes32"
                },
                {
                    "indexed": true,
                    "internalType": "bytes32",
                    "name": "newAdminRole",
                    "type": "bytes32"
                }
            ],
            "name": "RoleAdminChanged",
            "type": "event"
        },
        {
            "anonymous": false,
            "inputs": [
                {
                    "indexed": true,
                    "internalType": "bytes32",
                    "name": "role",
                    "type": "bytes32"
                },
                {
                    "indexed": true,
                    "internalType": "address",
                    "name": "account",
                    "type": "address"
                },
                {
                    "indexed": true,
                    "internalType": "address",
                    "name": "sender",
                    "type": "address"
                }
            ],
            "name": "RoleGranted",
            "type": "event"
        },
        {
            "anonymous": false,
            "inputs": [
                {
                    "indexed": true,
                    "internalType": "bytes32",
                    "name": "role",
                    "type": "bytes32"
                },
                {
                    "indexed": true,
                    "internalType": "address",
                    "name": "account",
                    "type": "address"
                },
                {
                    "indexed": true,
                    "internalType": "address",
                    "name": "sender",
                    "type": "address"
                }
            ],
            "name": "RoleRevoked",
            "type": "event"
        },
        {
            "anonymous": false,
            "inputs": [
                {
                    "indexed": false,
                    "internalType": "address",
                    "name": "tokenAddress",
                    "type": "address"
                },
                {
                    "indexed": false,
                    "internalType": "string",
                    "name": "name",
                    "type": "string"
                },
                {
                    "indexed": false,
                    "internalType": "string",
                    "name": "symbol",
                    "type": "string"
                },
                {
                    "indexed": false,
                    "internalType": "uint256",
                    "name": "decimals",
                    "type": "uint256"
                }
            ],
            "name": "TokenDeployed",
            "type": "event"
        },
        {
            "anonymous": false,
            "inputs": [
                {
                    "indexed": false,
                    "internalType": "address",
                    "name": "vaultAddress",
                    "type": "address"
                },
                {
                    "indexed": false,
                    "internalType": "string",
                    "name": "name",
                    "type": "string"
                },
                {
                    "indexed": false,
                    "internalType": "address",
                    "name": "broker",
                    "type": "address"
                }
            ],
            "name": "VaultDeployed",
            "type": "event"
        },
        {
            "inputs": [],
            "name": "DEFAULT_ADMIN_ROLE",
            "outputs": [
                {
                    "internalType": "bytes32",
                    "name": "",
                    "type": "bytes32"
                }
            ],
            "stateMutability": "view",
            "type": "function"
        },
        {
            "inputs": [
                {
                    "internalType": "address",
                    "name": "account",
                    "type": "address"
                }
            ],
            "name": "addAdmin",
            "outputs": [],
            "stateMutability": "nonpayable",
            "type": "function"
        },
        {
            "inputs": [
                {
                    "internalType": "contract SimpleERC20",
                    "name": "token",
                    "type": "address"
                },
                {
                    "internalType": "uint256",
                    "name": "mint_per_deployment",
                    "type": "uint256"
                }
            ],
            "name": "addToken",
            "outputs": [],
            "stateMutability": "nonpayable",
            "type": "function"
        },
        {
            "inputs": [
                {
                    "internalType": "contract SimpleERC20",
                    "name": "token",
                    "type": "address"
                },
                {
                    "internalType": "address",
                    "name": "account",
                    "type": "address"
                }
            ],
            "name": "addTokenAdmin",
            "outputs": [],
            "stateMutability": "nonpayable",
            "type": "function"
        },
        {
            "inputs": [
                {
                    "internalType": "address",
                    "name": "account",
                    "type": "address"
                }
            ],
            "name": "addTokensAdmin",
            "outputs": [],
            "stateMutability": "nonpayable",
            "type": "function"
        },
        {
            "inputs": [
                {
                    "internalType": "string",
                    "name": "name",
                    "type": "string"
                },
                {
                    "internalType": "string",
                    "name": "symbol",
                    "type": "string"
                },
                {
                    "internalType": "uint8",
                    "name": "decimals",
                    "type": "uint8"
                },
                {
                    "internalType": "uint256",
                    "name": "mint_per_deployment",
                    "type": "uint256"
                }
            ],
            "name": "deployAndAddToken",
            "outputs": [
                {
                    "internalType": "contract SimpleERC20",
                    "name": "",
                    "type": "address"
                }
            ],
            "stateMutability": "nonpayable",
            "type": "function"
        },
        {
            "inputs": [
                {
                    "internalType": "string",
                    "name": "name_",
                    "type": "string"
                },
                {
                    "internalType": "address",
                    "name": "broker_",
                    "type": "address"
                }
            ],
            "name": "deployVault",
            "outputs": [
                {
                    "internalType": "contract SimpleVault",
                    "name": "",
                    "type": "address"
                }
            ],
            "stateMutability": "nonpayable",
            "type": "function"
        },
        {
            "inputs": [
                {
                    "internalType": "bytes32",
                    "name": "role",
                    "type": "bytes32"
                }
            ],
            "name": "getRoleAdmin",
            "outputs": [
                {
                    "internalType": "bytes32",
                    "name": "",
                    "type": "bytes32"
                }
            ],
            "stateMutability": "view",
            "type": "function"
        },
        {
            "inputs": [
                {
                    "internalType": "bytes32",
                    "name": "role",
                    "type": "bytes32"
                },
                {
                    "internalType": "address",
                    "name": "account",
                    "type": "address"
                }
            ],
            "name": "grantRole",
            "outputs": [],
            "stateMutability": "nonpayable",
            "type": "function"
        },
        {
            "inputs": [
                {
                    "internalType": "bytes32",
                    "name": "role",
                    "type": "bytes32"
                },
                {
                    "internalType": "address",
                    "name": "account",
                    "type": "address"
                }
            ],
            "name": "hasRole",
            "outputs": [
                {
                    "internalType": "bool",
                    "name": "",
                    "type": "bool"
                }
            ],
            "stateMutability": "view",
            "type": "function"
        },
        {
            "inputs": [],
            "name": "initialize",
            "outputs": [],
            "stateMutability": "nonpayable",
            "type": "function"
        },
        {
            "inputs": [
                {
                    "internalType": "contract SimpleERC20",
                    "name": "token",
                    "type": "address"
                }
            ],
            "name": "removeToken",
            "outputs": [],
            "stateMutability": "nonpayable",
            "type": "function"
        },
        {
            "inputs": [
                {
                    "internalType": "bytes32",
                    "name": "role",
                    "type": "bytes32"
                },
                {
                    "internalType": "address",
                    "name": "account",
                    "type": "address"
                }
            ],
            "name": "renounceRole",
            "outputs": [],
            "stateMutability": "nonpayable",
            "type": "function"
        },
        {
            "inputs": [
                {
                    "internalType": "bytes32",
                    "name": "role",
                    "type": "bytes32"
                },
                {
                    "internalType": "address",
                    "name": "account",
                    "type": "address"
                }
            ],
            "name": "revokeRole",
            "outputs": [],
            "stateMutability": "nonpayable",
            "type": "function"
        },
        {
            "inputs": [
                {
                    "internalType": "bytes4",
                    "name": "interfaceId",
                    "type": "bytes4"
                }
            ],
            "name": "supportsInterface",
            "outputs": [
                {
                    "internalType": "bool",
                    "name": "",
                    "type": "bool"
                }
            ],
            "stateMutability": "view",
            "type": "function"
        }
    ],
    "bytecode": "0x608060405234801561001057600080fd5b5061536f806100206000396000f3fe60806040523480156200001157600080fd5b5060043610620001095760003560e01c806391d1485411620000a3578063c43c9e12116200006e578063c43c9e12146200023e578063c994b1961462000255578063d547741f146200026c578063d8dd5639146200028357600080fd5b806391d1485414620001d75780639f68e7be14620001ee578063a217fddf146200021e578063af81c5b9146200022757600080fd5b806336568abe11620000e457806336568abe14620001885780635fa7b584146200019f5780637048027514620001b65780638129fc1c14620001cd57600080fd5b806301ffc9a7146200010e578063248a9ca3146200013a5780632f2ff15d146200016f575b600080fd5b620001256200011f36600462001681565b6200029a565b60405190151581526020015b60405180910390f35b620001606200014b36600462001636565b60009081526065602052604090206001015490565b60405190815260200162000131565b62000186620001803660046200164f565b620002d2565b005b62000186620001993660046200164f565b62000301565b62000186620001b0366004620015f5565b62000387565b62000186620001c7366004620015f5565b620003c0565b62000186620003db565b62000125620001e83660046200164f565b620004b1565b62000205620001ff366004620017d2565b620004dc565b6040516001600160a01b03909116815260200162000131565b62000160600081565b6200018662000238366004620016dd565b6200058d565b620001866200024f366004620016ab565b620005be565b6200018662000266366004620015f5565b620005ee565b620001866200027d3660046200164f565b62000607565b620002056200029436600462001787565b62000631565b60006001600160e01b03198216637965db0b60e01b1480620002cc57506301ffc9a760e01b6001600160e01b03198316145b92915050565b600082815260656020526040902060010154620002f0813362000778565b620002fc8383620007e7565b505050565b6001600160a01b0381163314620003775760405162461bcd60e51b815260206004820152602f60248201527f416363657373436f6e74726f6c3a2063616e206f6e6c792072656e6f756e636560448201526e103937b632b9903337b91039b2b63360891b60648201526084015b60405180910390fd5b62000383828262000871565b5050565b600062000395813362000778565b620003a082620008db565b620003b5620003af8362000930565b620009b1565b620003838262000a96565b6000620003ce813362000778565b62000383600083620007e7565b600054610100900460ff16620003f85760005460ff1615620003fc565b303b155b620004615760405162461bcd60e51b815260206004820152602e60248201527f496e697469616c697a61626c653a20636f6e747261637420697320616c72656160448201526d191e481a5b9a5d1a585b1a5e995960921b60648201526084016200036e565b600054610100900460ff1615801562000484576000805461ffff19166101011790555b6200048e62000c30565b6200049b600033620007e7565b8015620004ae576000805461ff00191690555b50565b60009182526065602090815260408084206001600160a01b0393909316845291905290205460ff1690565b600080620004eb813362000778565b6000868686604051620004fe9062001582565b6200050c93929190620019ff565b604051809103906000f08015801562000529573d6000803e3d6000fd5b50905062000538818562000c7a565b62000544818562000d0f565b7f965d14e60858869a5d867a6a8bc4d86b62d1af8fb0ec2e51ce43d009a073958b818888886040516200057b94939291906200196f565b60405180910390a19695505050505050565b60006200059b813362000778565b620005a68362000dda565b620005b2838362000c7a565b620002fc838362000d0f565b6000620005cc813362000778565b620005d783620008db565b620005e28362000e37565b620002fc838362000efe565b6000620005fc813362000778565b620003838262000f66565b60008281526065602052604090206001015462000625813362000778565b620002fc838362000871565b60006200063f838362001056565b60008383604051620006519062001590565b6200065e929190620019d3565b604051809103906000f0801580156200067b573d6000803e3d6000fd5b509050620007298184604080518082019091526001600160a01b0391821681529181166020830190815260978054600181018255600091909152925160029093027f354a83ed9988f79f6038d4c7a7dadbad8af32f4ad6df893e0e5807a1b1944ff9810180549484166001600160a01b031995861617905590517f354a83ed9988f79f6038d4c7a7dadbad8af32f4ad6df893e0e5807a1b1944ffa9091018054919092169216919091179055565b6200073481620010b4565b7f7fb545db3c923b13dfbe40db970f31719dc802b7c35d4d0c5873d110b8c5e349818585604051620007699392919062001938565b60405180910390a19392505050565b620007848282620004b1565b62000383576200079f816001600160a01b03166014620011b6565b620007ac836020620011b6565b604051602001620007bf929190620018bf565b60408051601f198184030181529082905262461bcd60e51b82526200036e91600401620019be565b620007f38282620004b1565b620003835760008281526065602090815260408083206001600160a01b03851684529091529020805460ff191660011790556200082d3390565b6001600160a01b0316816001600160a01b0316837f2f8788117e7eff1d82e926ec794901d17c78024a50270940304540a733656f0d60405160405180910390a45050565b6200087d8282620004b1565b15620003835760008281526065602090815260408083206001600160a01b0385168085529252808320805460ff1916905551339285917ff6391f5c32d9c69d2a47ea670b442974b53935d1edc7fd64eb21e047a839171b9190a45050565b620008e68162000930565b6000191415620004ae5760405162461bcd60e51b81526020600482015260146024820152731d1bdad95b881a5cc81b9bdd081c1c995cd95b9d60621b60448201526064016200036e565b6000805b609854811015620009a757826001600160a01b0316609882815481106200096b57634e487b7160e01b600052603260045260246000fd5b60009182526020909120600290910201546001600160a01b03161415620009925792915050565b806200099e8162001b8a565b91505062000934565b5060001992915050565b60988054620009c39060019062001b23565b81548110620009e257634e487b7160e01b600052603260045260246000fd5b90600052602060002090600202016098828154811062000a1257634e487b7160e01b600052603260045260246000fd5b60009182526020909120825460029092020180546001600160a01b0319166001600160a01b03909216919091178155600191820154910155609880548062000a6a57634e487b7160e01b600052603160045260246000fd5b60008281526020812060026000199093019283020180546001600160a01b031916815560010155905550565b60005b6097548110156200038357816001600160a01b03166379cc67906097838154811062000ad557634e487b7160e01b600052603260045260246000fd5b906000526020600020906002020160010160009054906101000a90046001600160a01b0316846001600160a01b03166370a082316097868154811062000b2b57634e487b7160e01b600052603260045260246000fd5b600091825260209091206002909102016001015460405160e083901b6001600160e01b03191681526001600160a01b03909116600482015260240160206040518083038186803b15801562000b7f57600080fd5b505afa15801562000b94573d6000803e3d6000fd5b505050506040513d601f19601f8201168201806040525081019062000bba91906200185a565b6040516001600160e01b031960e085901b1681526001600160a01b0390921660048301526024820152604401600060405180830381600087803b15801562000c0157600080fd5b505af115801562000c16573d6000803e3d6000fd5b50505050808062000c279062001b8a565b91505062000a99565b600054610100900460ff1662000c5a5760405162461bcd60e51b81526004016200036e9062001a3c565b62000c64620013b3565b62000c6e620013b3565b62000c78620013b3565b565b604080518082019091526001600160a01b039283168152602081019182526098805460018101825560009190915290517f2237a976fa961f5921fd19f2b03c925c725d77b20ce8f790c19709c03de4d814600290920291820180546001600160a01b0319169190941617909255517f2237a976fa961f5921fd19f2b03c925c725d77b20ce8f790c19709c03de4d81590910155565b60005b609754811015620002fc57826001600160a01b031663449a52f86097838154811062000d4e57634e487b7160e01b600052603260045260246000fd5b600091825260209091206002909102016001015460405160e083901b6001600160e01b03191681526001600160a01b03909116600482015260248101859052604401600060405180830381600087803b15801562000dab57600080fd5b505af115801562000dc0573d6000803e3d6000fd5b50505050808062000dd19062001b8a565b91505062000d12565b62000de58162000930565b60001914620004ae5760405162461bcd60e51b815260206004820152601860248201527f746f6b656e20697320616c72656164792070726573656e74000000000000000060448201526064016200036e565b604051632474521560e21b8152600060048201523060248201526001600160a01b038216906391d148549060440160206040518083038186803b15801562000e7e57600080fd5b505afa15801562000e93573d6000803e3d6000fd5b505050506040513d601f19601f8201168201806040525081019062000eb9919062001614565b620004ae5760405162461bcd60e51b81526020600482015260146024820152733330b1ba37b93c9034b9903737ba1030b236b4b760611b60448201526064016200036e565b604051632f2ff15d60e01b8152600060048201526001600160a01b038281166024830152831690632f2ff15d90604401600060405180830381600087803b15801562000f4957600080fd5b505af115801562000f5e573d6000803e3d6000fd5b505050505050565b60005b609854811015620003835760006098828154811062000f9857634e487b7160e01b600052603260045260246000fd5b6000918252602082206002919091020154604051632474521560e21b815260048101929092523060248301526001600160a01b0316915081906391d148549060440160206040518083038186803b15801562000ff357600080fd5b505afa15801562001008573d6000803e3d6000fd5b505050506040513d601f19601f820116820180604052508101906200102e919062001614565b15620010405762001040818462000efe565b50806200104d8162001b8a565b91505062000f69565b620010628282620013dd565b60001914620003835760405162461bcd60e51b815260206004820152601860248201527f7661756c7420697320616c72656164792070726573656e74000000000000000060448201526064016200036e565b60005b609854811015620003835760988181548110620010e457634e487b7160e01b600052603260045260246000fd5b6000918252602090912060029091020154609880546001600160a01b039092169163449a52f8918591859081106200112c57634e487b7160e01b600052603260045260246000fd5b60009182526020909120600160029092020101546040516001600160e01b031960e085901b1681526001600160a01b0390921660048301526024820152604401600060405180830381600087803b1580156200118757600080fd5b505af11580156200119c573d6000803e3d6000fd5b505050508080620011ad9062001b8a565b915050620010b7565b60606000620011c783600262001b01565b620011d490600262001ae6565b67ffffffffffffffff811115620011fb57634e487b7160e01b600052604160045260246000fd5b6040519080825280601f01601f19166020018201604052801562001226576020820181803683370190505b509050600360fc1b816000815181106200125057634e487b7160e01b600052603260045260246000fd5b60200101906001600160f81b031916908160001a905350600f60fb1b816001815181106200128e57634e487b7160e01b600052603260045260246000fd5b60200101906001600160f81b031916908160001a9053506000620012b484600262001b01565b620012c190600162001ae6565b90505b60018111156200135b576f181899199a1a9b1b9c1cb0b131b232b360811b85600f16601081106200130557634e487b7160e01b600052603260045260246000fd5b1a60f81b8282815181106200132a57634e487b7160e01b600052603260045260246000fd5b60200101906001600160f81b031916908160001a90535060049490941c93620013538162001b70565b9050620012c4565b508315620013ac5760405162461bcd60e51b815260206004820181905260248201527f537472696e67733a20686578206c656e67746820696e73756666696369656e7460448201526064016200036e565b9392505050565b600054610100900460ff1662000c785760405162461bcd60e51b81526004016200036e9062001a3c565b6000805b6097548110156200151a57826001600160a01b0316609782815481106200141857634e487b7160e01b600052603260045260246000fd5b60009182526020909120600290910201546001600160a01b0316148015620014f75750620014f7609782815481106200146157634e487b7160e01b600052603260045260246000fd5b60009182526020822060016002909202010154604080516306fdde0360e01b815290516001600160a01b03909216926306fdde0392600480840193829003018186803b158015620014b157600080fd5b505afa158015620014c6573d6000803e3d6000fd5b505050506040513d6000823e601f3d908101601f19168201604052620014f091908101906200170b565b8562001525565b1562001505579050620002cc565b80620015118162001b8a565b915050620013e1565b506000199392505050565b6000816040516020016200153a9190620018a1565b6040516020818303038152906040528051906020012083604051602001620015639190620018a1565b6040516020818303038152906040528051906020012014905092915050565b6116528062001beb83390190565b6120fd806200323d83390190565b600082601f830112620015af578081fd5b8135620015c6620015c08262001abb565b62001a87565b818152846020838601011115620015db578283fd5b816020850160208301379081016020019190915292915050565b60006020828403121562001607578081fd5b8135620013ac8162001bd4565b60006020828403121562001626578081fd5b81518015158114620013ac578182fd5b60006020828403121562001648578081fd5b5035919050565b6000806040838503121562001662578081fd5b823591506020830135620016768162001bd4565b809150509250929050565b60006020828403121562001693578081fd5b81356001600160e01b031981168114620013ac578182fd5b60008060408385031215620016be578182fd5b8235620016cb8162001bd4565b91506020830135620016768162001bd4565b60008060408385031215620016f0578182fd5b8235620016fd8162001bd4565b946020939093013593505050565b6000602082840312156200171d578081fd5b815167ffffffffffffffff81111562001734578182fd5b8201601f8101841362001745578182fd5b805162001756620015c08262001abb565b8181528560208385010111156200176b578384fd5b6200177e82602083016020860162001b3d565b95945050505050565b600080604083850312156200179a578182fd5b823567ffffffffffffffff811115620017b1578283fd5b620017bf858286016200159e565b9250506020830135620016768162001bd4565b60008060008060808587031215620017e8578182fd5b843567ffffffffffffffff8082111562001800578384fd5b6200180e888389016200159e565b9550602087013591508082111562001824578384fd5b5062001833878288016200159e565b935050604085013560ff811681146200184a578283fd5b9396929550929360600135925050565b6000602082840312156200186c578081fd5b5051919050565b600081518084526200188d81602086016020860162001b3d565b601f01601f19169290920160200192915050565b60008251620018b581846020870162001b3d565b9190910192915050565b7f416363657373436f6e74726f6c3a206163636f756e7420000000000000000000815260008351620018f981601785016020880162001b3d565b7001034b99036b4b9b9b4b733903937b6329607d1b60179184019182015283516200192c81602884016020880162001b3d565b01602801949350505050565b600060018060a01b038086168352606060208401526200195c606084018662001873565b9150808416604084015250949350505050565b6001600160a01b0385168152608060208201819052600090620019959083018662001873565b8281036040840152620019a9818662001873565b91505060ff8316606083015295945050505050565b602081526000620013ac602083018462001873565b604081526000620019e8604083018562001873565b905060018060a01b03831660208301529392505050565b60608152600062001a14606083018662001873565b828103602084015262001a28818662001873565b91505060ff83166040830152949350505050565b6020808252602b908201527f496e697469616c697a61626c653a20636f6e7472616374206973206e6f74206960408201526a6e697469616c697a696e6760a81b606082015260800190565b604051601f8201601f1916810167ffffffffffffffff8111828210171562001ab35762001ab362001bbe565b604052919050565b600067ffffffffffffffff82111562001ad85762001ad862001bbe565b50601f01601f191660200190565b6000821982111562001afc5762001afc62001ba8565b500190565b600081600019048311821515161562001b1e5762001b1e62001ba8565b500290565b60008282101562001b385762001b3862001ba8565b500390565b60005b8381101562001b5a57818101518382015260200162001b40565b8381111562001b6a576000848401525b50505050565b60008162001b825762001b8262001ba8565b506000190190565b600060001982141562001ba15762001ba162001ba8565b5060010190565b634e487b7160e01b600052601160045260246000fd5b634e487b7160e01b600052604160045260246000fd5b6001600160a01b0381168114620004ae57600080fdfe60806040523480156200001157600080fd5b5060405162001652380380620016528339810160408190526200003491620002e1565b8251839083906200004d90600390602085019062000188565b5080516200006390600490602084019062000188565b50506006805460ff191660ff84161790555062000082600033620000e3565b620000ae7f9f2df0fed2c77648de5860a4cc508cd0818c85b8b8a1ab4ceeef8d981c8956a633620000e3565b620000da7f3c11d16cbaffd01df69ce1c404f6340ee057498f5f00246190ea54220576a84833620000e3565b505050620003b5565b60008281526005602090815260408083206001600160a01b038516845290915290205460ff16620001845760008281526005602090815260408083206001600160a01b03851684529091529020805460ff19166001179055620001433390565b6001600160a01b0316816001600160a01b0316837f2f8788117e7eff1d82e926ec794901d17c78024a50270940304540a733656f0d60405160405180910390a45b5050565b828054620001969062000362565b90600052602060002090601f016020900481019282620001ba576000855562000205565b82601f10620001d557805160ff191683800117855562000205565b8280016001018555821562000205579182015b8281111562000205578251825591602001919060010190620001e8565b506200021392915062000217565b5090565b5b8082111562000213576000815560010162000218565b600082601f8301126200023f578081fd5b81516001600160401b03808211156200025c576200025c6200039f565b604051601f8301601f19908116603f011681019082821181831017156200028757620002876200039f565b81604052838152602092508683858801011115620002a3578485fd5b8491505b83821015620002c65785820183015181830184015290820190620002a7565b83821115620002d757848385830101525b9695505050505050565b600080600060608486031215620002f6578283fd5b83516001600160401b03808211156200030d578485fd5b6200031b878388016200022e565b9450602086015191508082111562000331578384fd5b5062000340868287016200022e565b925050604084015160ff8116811462000357578182fd5b809150509250925092565b600181811c908216806200037757607f821691505b602082108114156200039957634e487b7160e01b600052602260045260246000fd5b50919050565b634e487b7160e01b600052604160045260246000fd5b61128d80620003c56000396000f3fe608060405234801561001057600080fd5b50600436106101425760003560e01c8063449a52f8116100b8578063a217fddf1161007c578063a217fddf146102c0578063a457c2d7146102c8578063a9059cbb146102db578063d5391393146102ee578063d547741f14610315578063dd62ed3e1461032857600080fd5b8063449a52f81461025657806370a082311461026957806379cc67901461029257806391d14854146102a557806395d89b41146102b857600080fd5b8063248a9ca31161010a578063248a9ca3146101bc578063282c51f3146101df5780632f2ff15d14610206578063313ce5671461021b57806336568abe14610230578063395093511461024357600080fd5b806301ffc9a71461014757806306fdde031461016f578063095ea7b31461018457806318160ddd1461019757806323b872dd146101a9575b600080fd5b61015a6101553660046110a5565b610361565b60405190151581526020015b60405180910390f35b610177610398565b6040516101669190611142565b61015a610192366004611042565b61042a565b6002545b604051908152602001610166565b61015a6101b7366004611007565b610440565b61019b6101ca36600461106b565b60009081526005602052604090206001015490565b61019b7f3c11d16cbaffd01df69ce1c404f6340ee057498f5f00246190ea54220576a84881565b610219610214366004611083565b6104ef565b005b60065460405160ff9091168152602001610166565b61021961023e366004611083565b61051a565b61015a610251366004611042565b610598565b610219610264366004611042565b6105d4565b61019b610277366004610fbb565b6001600160a01b031660009081526020819052604090205490565b6102196102a0366004611042565b610609565b61015a6102b3366004611083565b61063e565b610177610669565b61019b600081565b61015a6102d6366004611042565b610678565b61015a6102e9366004611042565b610711565b61019b7f9f2df0fed2c77648de5860a4cc508cd0818c85b8b8a1ab4ceeef8d981c8956a681565b610219610323366004611083565b61071e565b61019b610336366004610fd5565b6001600160a01b03918216600090815260016020908152604080832093909416825291909152205490565b60006001600160e01b03198216637965db0b60e01b148061039257506301ffc9a760e01b6001600160e01b03198316145b92915050565b6060600380546103a790611206565b80601f01602080910402602001604051908101604052809291908181526020018280546103d390611206565b80156104205780601f106103f557610100808354040283529160200191610420565b820191906000526020600020905b81548152906001019060200180831161040357829003601f168201915b5050505050905090565b6000610437338484610744565b50600192915050565b600061044d848484610868565b6001600160a01b0384166000908152600160209081526040808320338452909152902054828110156104d75760405162461bcd60e51b815260206004820152602860248201527f45524332303a207472616e7366657220616d6f756e74206578636565647320616044820152676c6c6f77616e636560c01b60648201526084015b60405180910390fd5b6104e48533858403610744565b506001949350505050565b60008281526005602052604090206001015461050b8133610a38565b6105158383610a9c565b505050565b6001600160a01b038116331461058a5760405162461bcd60e51b815260206004820152602f60248201527f416363657373436f6e74726f6c3a2063616e206f6e6c792072656e6f756e636560448201526e103937b632b9903337b91039b2b63360891b60648201526084016104ce565b6105948282610b22565b5050565b3360008181526001602090815260408083206001600160a01b038716845290915281205490916104379185906105cf908690611175565b610744565b7f9f2df0fed2c77648de5860a4cc508cd0818c85b8b8a1ab4ceeef8d981c8956a66105ff8133610a38565b6105158383610b89565b7f3c11d16cbaffd01df69ce1c404f6340ee057498f5f00246190ea54220576a8486106348133610a38565b6105158383610c68565b60009182526005602090815260408084206001600160a01b0393909316845291905290205460ff1690565b6060600480546103a790611206565b3360009081526001602090815260408083206001600160a01b0386168452909152812054828110156106fa5760405162461bcd60e51b815260206004820152602560248201527f45524332303a2064656372656173656420616c6c6f77616e63652062656c6f77604482015264207a65726f60d81b60648201526084016104ce565b6107073385858403610744565b5060019392505050565b6000610437338484610868565b60008281526005602052604090206001015461073a8133610a38565b6105158383610b22565b6001600160a01b0383166107a65760405162461bcd60e51b8152602060048201526024808201527f45524332303a20617070726f76652066726f6d20746865207a65726f206164646044820152637265737360e01b60648201526084016104ce565b6001600160a01b0382166108075760405162461bcd60e51b815260206004820152602260248201527f45524332303a20617070726f766520746f20746865207a65726f206164647265604482015261737360f01b60648201526084016104ce565b6001600160a01b0383811660008181526001602090815260408083209487168084529482529182902085905590518481527f8c5be1e5ebec7d5bd14f71427d1e84f3dd0314c0f7b2291e5b200ac8c7c3b925910160405180910390a3505050565b6001600160a01b0383166108cc5760405162461bcd60e51b815260206004820152602560248201527f45524332303a207472616e736665722066726f6d20746865207a65726f206164604482015264647265737360d81b60648201526084016104ce565b6001600160a01b03821661092e5760405162461bcd60e51b815260206004820152602360248201527f45524332303a207472616e7366657220746f20746865207a65726f206164647260448201526265737360e81b60648201526084016104ce565b6001600160a01b038316600090815260208190526040902054818110156109a65760405162461bcd60e51b815260206004820152602660248201527f45524332303a207472616e7366657220616d6f756e7420657863656564732062604482015265616c616e636560d01b60648201526084016104ce565b6001600160a01b038085166000908152602081905260408082208585039055918516815290812080548492906109dd908490611175565b92505081905550826001600160a01b0316846001600160a01b03167fddf252ad1be2c89b69c2b068fc378daa952ba7f163c4a11628f55a4df523b3ef84604051610a2991815260200190565b60405180910390a35b50505050565b610a42828261063e565b61059457610a5a816001600160a01b03166014610db6565b610a65836020610db6565b604051602001610a769291906110cd565b60408051601f198184030181529082905262461bcd60e51b82526104ce91600401611142565b610aa6828261063e565b6105945760008281526005602090815260408083206001600160a01b03851684529091529020805460ff19166001179055610ade3390565b6001600160a01b0316816001600160a01b0316837f2f8788117e7eff1d82e926ec794901d17c78024a50270940304540a733656f0d60405160405180910390a45050565b610b2c828261063e565b156105945760008281526005602090815260408083206001600160a01b0385168085529252808320805460ff1916905551339285917ff6391f5c32d9c69d2a47ea670b442974b53935d1edc7fd64eb21e047a839171b9190a45050565b6001600160a01b038216610bdf5760405162461bcd60e51b815260206004820152601f60248201527f45524332303a206d696e7420746f20746865207a65726f20616464726573730060448201526064016104ce565b8060026000828254610bf19190611175565b90915550506001600160a01b03821660009081526020819052604081208054839290610c1e908490611175565b90915550506040518181526001600160a01b038316906000907fddf252ad1be2c89b69c2b068fc378daa952ba7f163c4a11628f55a4df523b3ef9060200160405180910390a35050565b6001600160a01b038216610cc85760405162461bcd60e51b815260206004820152602160248201527f45524332303a206275726e2066726f6d20746865207a65726f206164647265736044820152607360f81b60648201526084016104ce565b6001600160a01b03821660009081526020819052604090205481811015610d3c5760405162461bcd60e51b815260206004820152602260248201527f45524332303a206275726e20616d6f756e7420657863656564732062616c616e604482015261636560f01b60648201526084016104ce565b6001600160a01b0383166000908152602081905260408120838303905560028054849290610d6b9084906111ac565b90915550506040518281526000906001600160a01b038516907fddf252ad1be2c89b69c2b068fc378daa952ba7f163c4a11628f55a4df523b3ef9060200160405180910390a3505050565b60606000610dc583600261118d565b610dd0906002611175565b67ffffffffffffffff811115610df657634e487b7160e01b600052604160045260246000fd5b6040519080825280601f01601f191660200182016040528015610e20576020820181803683370190505b509050600360fc1b81600081518110610e4957634e487b7160e01b600052603260045260246000fd5b60200101906001600160f81b031916908160001a905350600f60fb1b81600181518110610e8657634e487b7160e01b600052603260045260246000fd5b60200101906001600160f81b031916908160001a9053506000610eaa84600261118d565b610eb5906001611175565b90505b6001811115610f49576f181899199a1a9b1b9c1cb0b131b232b360811b85600f1660108110610ef757634e487b7160e01b600052603260045260246000fd5b1a60f81b828281518110610f1b57634e487b7160e01b600052603260045260246000fd5b60200101906001600160f81b031916908160001a90535060049490941c93610f42816111ef565b9050610eb8565b508315610f985760405162461bcd60e51b815260206004820181905260248201527f537472696e67733a20686578206c656e67746820696e73756666696369656e7460448201526064016104ce565b9392505050565b80356001600160a01b0381168114610fb657600080fd5b919050565b600060208284031215610fcc578081fd5b610f9882610f9f565b60008060408385031215610fe7578081fd5b610ff083610f9f565b9150610ffe60208401610f9f565b90509250929050565b60008060006060848603121561101b578081fd5b61102484610f9f565b925061103260208501610f9f565b9150604084013590509250925092565b60008060408385031215611054578182fd5b61105d83610f9f565b946020939093013593505050565b60006020828403121561107c578081fd5b5035919050565b60008060408385031215611095578182fd5b82359150610ffe60208401610f9f565b6000602082840312156110b6578081fd5b81356001600160e01b031981168114610f98578182fd5b7f416363657373436f6e74726f6c3a206163636f756e74200000000000000000008152600083516111058160178501602088016111c3565b7001034b99036b4b9b9b4b733903937b6329607d1b60179184019182015283516111368160288401602088016111c3565b01602801949350505050565b60208152600082518060208401526111618160408501602087016111c3565b601f01601f19169190910160400192915050565b6000821982111561118857611188611241565b500190565b60008160001904831182151516156111a7576111a7611241565b500290565b6000828210156111be576111be611241565b500390565b60005b838110156111de5781810151838201526020016111c6565b83811115610a325750506000910152565b6000816111fe576111fe611241565b506000190190565b600181811c9082168061121a57607f821691505b6020821081141561123b57634e487b7160e01b600052602260045260246000fd5b50919050565b634e487b7160e01b600052601160045260246000fdfea26469706673582212201f704a521a0082c11df500831583902e01da9b28ed0c2324e7da852289716e8e64736f6c6343000804003360806040523480156200001157600080fd5b50604051620020fd380380620020fd833981016040819052620000349162000217565b81516200004990600190602085019062000154565b50600280546001600160a01b0319166001600160a01b03831617905562000072600033620000b3565b600254620000ab907f66e94a88bbb3fdd95a971bac7c9a0e8ccdc21c804727f6c3d554bbb41eb50cfe906001600160a01b0316620000b3565b505062000355565b6000828152602081815260408083206001600160a01b038516845290915290205460ff1662000150576000828152602081815260408083206001600160a01b03851684529091529020805460ff191660011790556200010f3390565b6001600160a01b0316816001600160a01b0316837f2f8788117e7eff1d82e926ec794901d17c78024a50270940304540a733656f0d60405160405180910390a45b5050565b828054620001629062000302565b90600052602060002090601f016020900481019282620001865760008555620001d1565b82601f10620001a157805160ff1916838001178555620001d1565b82800160010185558215620001d1579182015b82811115620001d1578251825591602001919060010190620001b4565b50620001df929150620001e3565b5090565b5b80821115620001df5760008155600101620001e4565b80516001600160a01b03811681146200021257600080fd5b919050565b600080604083850312156200022a578182fd5b82516001600160401b038082111562000241578384fd5b818501915085601f83011262000255578384fd5b8151818111156200026a576200026a6200033f565b604051601f8201601f19908116603f011681019083821181831017156200029557620002956200033f565b81604052828152602093508884848701011115620002b1578687fd5b8691505b82821015620002d45784820184015181830185015290830190620002b5565b82821115620002e557868484830101525b9550620002f7915050858201620001fa565b925050509250929050565b600181811c908216806200031757607f821691505b602082108114156200033957634e487b7160e01b600052602260045260246000fd5b50919050565b634e487b7160e01b600052604160045260246000fd5b611d9880620003656000396000f3fe6080604052600436106100e85760003560e01c806336568abe1161008a578063a217fddf11610059578063a217fddf14610280578063a8e5862d14610295578063b6b7b9d9146102aa578063d547741f146102de57600080fd5b806336568abe1461020d57806350fbe2d91461022d578063655e0d381461024057806391d148541461026057600080fd5b806314ba698f116100c657806314ba698f14610174578063164af1df146101a8578063248a9ca3146101bb5780632f2ff15d146101eb57600080fd5b806301ffc9a7146100ed578063029793ec1461012257806306fdde0314610152575b600080fd5b3480156100f957600080fd5b5061010d610108366004611a0c565b6102fe565b60405190151581526020015b60405180910390f35b34801561012e57600080fd5b50610144600080516020611d4383398151915281565b604051908152602001610119565b34801561015e57600080fd5b50610167610335565b6040516101199190611ba4565b34801561018057600080fd5b506101447f0f90c30f295ddf107651c560839af215c455eae423f93f4caf26eaafbf563f7d81565b61010d6101b6366004611a34565b6103c7565b3480156101c757600080fd5b506101446101d63660046118bf565b60009081526020819052604090206001015490565b3480156101f757600080fd5b5061020b6102063660046118d7565b6103dd565b005b34801561021957600080fd5b5061020b6102283660046118d7565b610408565b61010d61023b366004611a34565b61048b565b34801561024c57600080fd5b5061020b61025b366004611883565b610499565b34801561026c57600080fd5b5061010d61027b3660046118d7565b610505565b34801561028c57600080fd5b50610144600081565b3480156102a157600080fd5b5061014461052e565b3480156102b657600080fd5b506101447f890025f3df654d4480ebee2a94f690d6f0516db00c2b807ed9786b2a030b765481565b3480156102ea57600080fd5b5061020b6102f93660046118d7565b61053e565b60006001600160e01b03198216637965db0b60e01b148061032f57506301ffc9a760e01b6001600160e01b03198316145b92915050565b60606001805461034490611cab565b80601f016020809104026020016040519081016040528092919081815260200182805461037090611cab565b80156103bd5780601f10610392576101008083540402835291602001916103bd565b820191906000526020600020905b8154815290600101906020018083116103a057829003601f168201915b5050505050905090565b60006103d533858585610564565b949350505050565b6000828152602081905260409020600101546103f98133610939565b610403838361099d565b505050565b6001600160a01b038116331461047d5760405162461bcd60e51b815260206004820152602f60248201527f416363657373436f6e74726f6c3a2063616e206f6e6c792072656e6f756e636560448201526e103937b632b9903337b91039b2b63360891b60648201526084015b60405180910390fd5b6104878282610a21565b5050565b60006103d533858585610a86565b60006104a58133610939565b6002546104ca90600080516020611d43833981519152906001600160a01b031661053e565b6104e2600080516020611d438339815191528361099d565b50600280546001600160a01b0319166001600160a01b0392909216919091179055565b6000918252602082815260408084206001600160a01b0393909316845291905290205460ff1690565b600061053960035490565b905090565b60008281526020819052604090206001015461055a8133610939565b6104038383610a21565b6000847f0f90c30f295ddf107651c560839af215c455eae423f93f4caf26eaafbf563f7d8585856001600160a01b0385166105e15760405162461bcd60e51b815260206004820152601e60248201527f5661756c743a206163636f756e74206973207a65726f206164647265737300006044820152606401610474565b8361062a5760405162461bcd60e51b815260206004820152601960248201527815985d5b1d0e881858dd1a5bdb881a5cc81c995c5d5a5c9959603a1b6044820152606401610474565b60006106a485858560405160200161064493929190611b15565b60408051601f1981840301815282825280516020918201207f19457468657265756d205369676e6564204d6573736167653a0a33320000000084830152603c8085019190915282518085039091018152605c909301909152815191012090565b905060006106b28284610de7565b6002549091506001600160a01b0380831691161461070d5760405162461bcd60e51b81526020600482015260186024820152775661756c743a20696e76616c6964207369676e617475726560401b6044820152606401610474565b505060025461073490600080516020611d43833981519152906001600160a01b0316610505565b6107785760405162461bcd60e51b81526020600482015260156024820152742b30bab63a1d1034b73b30b634b210313937b5b2b960591b6044820152606401610474565b8651602088012060008061078e8d848e8e610e0b565b9350505091506001600460008f6001600160a01b03166001600160a01b03168152602001908152602001600020600085815260200190815260200160002060006101000a81548160ff02191690831515021790555060005b81518110156109255761085082828151811061081257634e487b7160e01b600052603260045260246000fd5b6020026020010151600001518f84848151811061083f57634e487b7160e01b600052603260045260246000fd5b602002602001015160200151610ff4565b61085e600380546001019055565b81818151811061087e57634e487b7160e01b600052603260045260246000fd5b6020026020010151600001516001600160a01b03168e6001600160a01b03166108a660035490565b7f22d2a1a57cfc2beb4f12eb1036a9e6a87b32b4256b040912b14e3f665d6deef58585815181106108e757634e487b7160e01b600052603260045260246000fd5b6020026020010151602001518760405161090b929190918252602082015260400190565b60405180910390a48061091d81611ce6565b9150506107e6565b5060019d9c50505050505050505050505050565b6109438282610505565b6104875761095b816001600160a01b0316601461117b565b61096683602061117b565b604051602001610977929190611b2f565b60408051601f198184030181529082905262461bcd60e51b825261047491600401611ba4565b6109a78282610505565b610487576000828152602081815260408083206001600160a01b03851684529091529020805460ff191660011790556109dd3390565b6001600160a01b0316816001600160a01b0316837f2f8788117e7eff1d82e926ec794901d17c78024a50270940304540a733656f0d60405160405180910390a45050565b610a2b8282610505565b15610487576000828152602081815260408083206001600160a01b0385168085529252808320805460ff1916905551339285917ff6391f5c32d9c69d2a47ea670b442974b53935d1edc7fd64eb21e047a839171b9190a45050565b6000847f890025f3df654d4480ebee2a94f690d6f0516db00c2b807ed9786b2a030b76548585856001600160a01b038516610b035760405162461bcd60e51b815260206004820152601e60248201527f5661756c743a206163636f756e74206973207a65726f206164647265737300006044820152606401610474565b83610b4c5760405162461bcd60e51b815260206004820152601960248201527815985d5b1d0e881858dd1a5bdb881a5cc81c995c5d5a5c9959603a1b6044820152606401610474565b6000610b6685858560405160200161064493929190611b15565b90506000610b748284610de7565b6002549091506001600160a01b03808316911614610bcf5760405162461bcd60e51b81526020600482015260186024820152775661756c743a20696e76616c6964207369676e617475726560401b6044820152606401610474565b5050600254610bf690600080516020611d43833981519152906001600160a01b0316610505565b610c3a5760405162461bcd60e51b81526020600482015260156024820152742b30bab63a1d1034b73b30b634b210313937b5b2b960591b6044820152606401610474565b86516020880120600080610c508d848e8e610e0b565b9350505091506001600460008f6001600160a01b03166001600160a01b03168152602001908152602001600020600085815260200190815260200160002060006101000a81548160ff02191690831515021790555060005b815181101561092557610d12828281518110610cd457634e487b7160e01b600052603260045260246000fd5b6020026020010151600001518f848481518110610d0157634e487b7160e01b600052603260045260246000fd5b602002602001015160200151611364565b610d20600380546001019055565b818181518110610d4057634e487b7160e01b600052603260045260246000fd5b6020026020010151600001516001600160a01b03168e6001600160a01b0316610d6860035490565b7fd2b78ee4d7746a7014b79934b6d75a4b59c05550a8303c1d1b2f88940de4ec01858581518110610da957634e487b7160e01b600052603260045260246000fd5b60200260200101516020015187604051610dcd929190918252602082015260400190565b60405180910390a480610ddf81611ce6565b915050610ca8565b6000806000610df685856114f3565b91509150610e0381611563565b509392505050565b60008080606081808080610e21898b018b611906565b9350935093509350428367ffffffffffffffff1611610e825760405162461bcd60e51b815260206004820152601960248201527f5661756c743a20726571756573742069732065787069726564000000000000006044820152606401610474565b816001600160a01b03168c6001600160a01b031614610edc5760405162461bcd60e51b815260206004820152601660248201527515985d5b1d0e881a5b9d985b1a59081c995c5d595cdd60521b6044820152606401610474565b6001600160a01b038c1660009081526004602090815260408083208e845290915290205460ff1615610f505760405162461bcd60e51b815260206004820152601e60248201527f5661756c743a207369676e617475726520686173206265656e207573656400006044820152606401610474565b60005b8151811015610fe1576000828281518110610f7e57634e487b7160e01b600052603260045260246000fd5b60200260200101516020015111610fcf5760405162461bcd60e51b81526020600482015260156024820152745661756c743a20616d6f756e74206973207a65726f60581b6044820152606401610474565b80610fd981611ce6565b915050610f53565b50929b919a509850909650945050505050565b6001600160a01b03821661104a5760405162461bcd60e51b815260206004820152601f60248201527f5661756c743a207472616e73666572206973207a65726f2061646472657373006044820152606401610474565b6001600160a01b0383166110a7578034146104035760405162461bcd60e51b815260206004820152601a60248201527f5661756c743a20496e636f7272656374206d73672e76616c75650000000000006044820152606401610474565b6040516323b872dd60e01b81526001600160a01b038381166004830152306024830152604482018390528416906323b872dd90606401602060405180830381600087803b1580156110f757600080fd5b505af115801561110b573d6000803e3d6000fd5b505050506040513d601f19601f8201168201806040525081019061112f919061189f565b6104035760405162461bcd60e51b815260206004820152601e60248201527f5661756c743a20436f756c64206e6f74206465706f73697420455243323000006044820152606401610474565b6060600061118a836002611c49565b611195906002611c31565b67ffffffffffffffff8111156111bb57634e487b7160e01b600052604160045260246000fd5b6040519080825280601f01601f1916602001820160405280156111e5576020820181803683370190505b509050600360fc1b8160008151811061120e57634e487b7160e01b600052603260045260246000fd5b60200101906001600160f81b031916908160001a905350600f60fb1b8160018151811061124b57634e487b7160e01b600052603260045260246000fd5b60200101906001600160f81b031916908160001a905350600061126f846002611c49565b61127a906001611c31565b90505b600181111561130e576f181899199a1a9b1b9c1cb0b131b232b360811b85600f16601081106112bc57634e487b7160e01b600052603260045260246000fd5b1a60f81b8282815181106112e057634e487b7160e01b600052603260045260246000fd5b60200101906001600160f81b031916908160001a90535060049490941c9361130781611c94565b905061127d565b50831561135d5760405162461bcd60e51b815260206004820181905260248201527f537472696e67733a20686578206c656e67746820696e73756666696369656e746044820152606401610474565b9392505050565b6001600160a01b0382166113ba5760405162461bcd60e51b815260206004820152601f60248201527f5661756c743a207472616e73666572206973207a65726f2061646472657373006044820152606401610474565b6001600160a01b038316611471576000826001600160a01b03168260405160006040518083038185875af1925050503d8060008114611415576040519150601f19603f3d011682016040523d82523d6000602084013e61141a565b606091505b505090508061146b5760405162461bcd60e51b815260206004820152601d60248201527f5661756c743a20436f756c64206e6f74207472616e73666572204554480000006044820152606401610474565b50505050565b60405163a9059cbb60e01b81526001600160a01b0383811660048301526024820183905284169063a9059cbb90604401602060405180830381600087803b1580156114bb57600080fd5b505af11580156114cf573d6000803e3d6000fd5b505050506040513d601f19601f8201168201806040525081019061146b919061189f565b60008082516041141561152a5760208301516040840151606085015160001a61151e87828585611767565b9450945050505061155c565b8251604014156115545760208301516040840151611549868383611854565b93509350505061155c565b506000905060025b9250929050565b600081600481111561158557634e487b7160e01b600052602160045260246000fd5b141561158e5750565b60018160048111156115b057634e487b7160e01b600052602160045260246000fd5b14156115fe5760405162461bcd60e51b815260206004820152601860248201527f45434453413a20696e76616c6964207369676e617475726500000000000000006044820152606401610474565b600281600481111561162057634e487b7160e01b600052602160045260246000fd5b141561166e5760405162461bcd60e51b815260206004820152601f60248201527f45434453413a20696e76616c6964207369676e6174757265206c656e677468006044820152606401610474565b600381600481111561169057634e487b7160e01b600052602160045260246000fd5b14156116e95760405162461bcd60e51b815260206004820152602260248201527f45434453413a20696e76616c6964207369676e6174757265202773272076616c604482015261756560f01b6064820152608401610474565b600481600481111561170b57634e487b7160e01b600052602160045260246000fd5b14156117645760405162461bcd60e51b815260206004820152602260248201527f45434453413a20696e76616c6964207369676e6174757265202776272076616c604482015261756560f01b6064820152608401610474565b50565b6000807f7fffffffffffffffffffffffffffffff5d576e7357a4501ddfe92f46681b20a083111561179e575060009050600361184b565b8460ff16601b141580156117b657508460ff16601c14155b156117c7575060009050600461184b565b6040805160008082526020820180845289905260ff881692820192909252606081018690526080810185905260019060a0016020604051602081039080840390855afa15801561181b573d6000803e3d6000fd5b5050604051601f1901519150506001600160a01b0381166118445760006001925092505061184b565b9150600090505b94509492505050565b6000806001600160ff1b03831660ff84901c601b0161187587828885611767565b935093505050935093915050565b600060208284031215611894578081fd5b813561135d81611d2d565b6000602082840312156118b0578081fd5b8151801515811461135d578182fd5b6000602082840312156118d0578081fd5b5035919050565b600080604083850312156118e9578081fd5b8235915060208301356118fb81611d2d565b809150509250929050565b6000806000806080858703121561191b578182fd5b8435935060208086013567ffffffffffffffff808216821461193b578485fd5b9094506040908782013561194e81611d2d565b9450606088013581811115611961578485fd5b8801601f81018a13611971578485fd5b80358281111561198357611983611d17565b611991858260051b01611c00565b8181528581019350828601600683901b840187018d10156119b0578788fd5b8793505b828410156119fb5785818e0312156119ca578788fd5b6119d2611bd7565b81356119dd81611d2d565b815281880135888201528552938601936001939093019285016119b4565b50989b979a50959850505050505050565b600060208284031215611a1d578081fd5b81356001600160e01b03198116811461135d578182fd5b600080600060408486031215611a48578283fd5b833567ffffffffffffffff80821115611a5f578485fd5b818601915086601f830112611a72578485fd5b813581811115611a80578586fd5b60208881838601011115611a92578687fd5b808401965081955080880135935082841115611aac578485fd5b838801935088601f850112611abf578485fd5b8335915082821115611ad357611ad3611d17565b611ae5601f8301601f19168201611c00565b92508183528881838601011115611afa578485fd5b81818501828501379082010192909252509194909350909150565b838152818360208301376000910160200190815292915050565b7f416363657373436f6e74726f6c3a206163636f756e7420000000000000000000815260008351611b67816017850160208801611c68565b7001034b99036b4b9b9b4b733903937b6329607d1b6017918401918201528351611b98816028840160208801611c68565b01602801949350505050565b6020815260008251806020840152611bc3816040850160208701611c68565b601f01601f19169190910160400192915050565b6040805190810167ffffffffffffffff81118282101715611bfa57611bfa611d17565b60405290565b604051601f8201601f1916810167ffffffffffffffff81118282101715611c2957611c29611d17565b604052919050565b60008219821115611c4457611c44611d01565b500190565b6000816000190483118215151615611c6357611c63611d01565b500290565b60005b83811015611c83578181015183820152602001611c6b565b8381111561146b5750506000910152565b600081611ca357611ca3611d01565b506000190190565b600181811c90821680611cbf57607f821691505b60208210811415611ce057634e487b7160e01b600052602260045260246000fd5b50919050565b6000600019821415611cfa57611cfa611d01565b5060010190565b634e487b7160e01b600052601160045260246000fd5b634e487b7160e01b600052604160045260246000fd5b6001600160a01b038116811461176457600080fdfe66e94a88bbb3fdd95a971bac7c9a0e8ccdc21c804727f6c3d554bbb41eb50cfea2646970667358221220937ed0ccb9262828cd8d4f4fa7cd9c8c15b7e0af9c1a6a8c0dff8a7bb1c9427e64736f6c63430008040033a2646970667358221220a10b90488aa7b2ddef6848a25438160506e39205382662fc4a5b07a5199c928c64736f6c63430008040033",
    "linkReferences": {},
    "deployedLinkReferences": {}
}